:020000040800F2
:1000000078120024E1020008A34700088B4400088E
:10001000A14700089B0800083159000800000000B3
:10002000000000000000000000000000E949000896
:100030009D08000800000000A5470008EB490008E3
:10004000FB020008FB020008FB020008FB0200089C
:10005000FB020008FB020008FB020008FB0200088C
:10006000FB020008FB020008FB020008FB0200087C
:10007000FB020008FB020008FB020008FB0200086C
:10008000FB020008FB020008FB020008A5080008AC
:10009000FB020008B1080008FB020008FB02000890
:1000A000FB020008FB020008FB020008FB0200083C
:1000B000FB020008494B0008554B0008FB020008F2
:1000C000FB020008FB020008FB020008FB0200081C
:1000D000FB020008FB020008FB020008FB0200080C
:1000E000FB020008FB02000800000000FB02000801
:1000F000FB020008FB020008FB020008FB020008EC
:10010000FB020008FB020008FB020008FB020008DB
:10011000FB020008FB020008FB020008FB020008CB
:10012000FB020008FB020008FB020008FB020008BB
:10013000FB020008FB020008FB020008BD080008E3
:1001400000000000000000000000000000000000AF
:10015000FB020008FB020008FB020008FB0200088B
:10016000FB020008FB020008FB020008FB0200087B
:10017000FB020008FB020008FB0200080000000070
:10018000FB020008FB020008B54C0008FB02000857
:10019000FB020008FB020008FB020008FB0200084B
:1001A000FB020008FB020008FB0200080000000040
:1001B000FB020008FB020008FB020008FB0200082B
:1001C000FB020008FB020008000000000000000025
:1001D0000000000000000000FB020008000000001A
:1001E000000000000000000000000000000000000F
:1001F0000000000000000000FB020008FB020008F5
:10020000FB020008FB02000800000000FB020008DF
:10021000FB020008FB020008FB020008FB020008CA
:10022000FB02000800000000FB02000800000000C4
:10023000FB020008FB02000800000000FB020008AF
:10024000FB020008FB020008FB020008FB0200089A
:10025000FB020008FB020008FB020008FB0200088A
:10026000FB020008FB020008FB020008FB0200087A
:10027000FB020008FB020008FB020008000000006F
:10028000FB020008FB020008FB020008FB0200085A
:1002900000000000FB020008FB0200080000000054
:1002A00000000000FB020008FB020008FB0200083F
:1002B000FB020008FB020008FB020008FB0200082A
:1002C000FB020008FB020008FB020008DFF80CD06C
:1002D00000F062FA004800473D6B000878120024E5
:1002E0000648804706480047FEE7FEE7FEE7FEE7D0
:1002F000FEE7FEE7FEE7FEE7FEE7FEE7894A0008C5
:10030000CD0200082DE9F05F0546002092469B468D
:1003100088460646814640241BE02846414647461B
:10032000224600F070F853465A46C01A914110D345
:1003300011461846224600F057F82D1A67EB0108BF
:100340004F4622460120002100F04EF817EB00092D
:100350004E41201EA4F10104DFDC484631462A4606
:100360004346BDE8F09F40EA01039B0703D009E044
:1003700008C9121F08C0042AFAD203E011F8013B91
:1003800000F8013B521EF9D27047D2B201E000F8EA
:10039000012B491EFBD270470022F6E710B5134629
:1003A0000A4604461946FFF7F0FF204610BD421CDE
:1003B00010F8011B0029FBD1801A704730B50B469D
:1003C000014600202022012409E021FA02F59D4285
:1003D00005D303FA02F5491B04FA02F52844151E59
:1003E000A2F10102F1DC30BD202A04DB203A00FA40
:1003F00002F1002070479140C2F1200320FA03F37C
:10040000194390407047202A04DB203A21FA02F079
:100410000021704721FA02F3D040C2F1200291403E
:100420000843194670472DE9FE4F804681EA0300D4
:10043000C00F0C46009021F0004123F00045B8EBBE
:100440000200A94105D24046214690461C460B4673
:10045000024623F00040104347D0270DC7F30A009F
:10046000C3F30A510290401A019040286BDAC3F39B
:10047000130040F4801B0098924620B10023D2EB79
:10048000030A63EB0B0B01985946C0F1400250463A
:10049000FFF7AAFF06460D4650465946019A00F05E
:1004A0008DF910EB08006141002487EA115284EABB
:1004B000E7731A4340D0009A62B3019A012A4FEAC7
:1004C000075215DC001B61EB02014FF0004202EA0B
:1004D0000752CDE90042001C41F5801132462B46FF
:1004E00000F08DF903B0BDE8F08F40462146F9E7F2
:1004F000001B61EB0201001C41F5801300185B41F9
:100500002018A2F5001747EB030140EAD570B61991
:100510006D4111E06D084FEA360645EAC0754FEAB5
:100520000752001B61EB0201001C41F580114908D4
:100530004FEA30000019514132462B4603B0BDE866
:10054000F04F00F04DB90098012240000023D0EB9D
:10055000020263EBE073009821464FEAE074B8EBC7
:10056000000061EB0401E9E783F000435BE781F001
:10057000004158E72DE9FE4F81EA030404F00044EE
:1005800021F0004100944FF0000B23F0004350EAAB
:1005900001045ED052EA03045BD0C3F30A54C1F3F2
:1005A0000A552C44A4F2F3340194A0FB0254C1F385
:1005B000130141F48011C3F3130343F4801301FBCF
:1005C000024400FB034E840A970A44EA815447EA36
:1005D0008357A4FB076802958D0A05FB07854FEA40
:1005E000932C04FB0C542705029D4FEA065847EA5A
:1005F0001637B5EB08056EEB070C870E920E47EA2F
:10060000811742EA8312A7FB0201B6EB0B0164EBF0
:1006100000042B0D43EA0C335E1844EB1C50DA4601
:100620005146E7FB0201C5F313044FEA0B3343EADB
:1006300014534FEA0432019C43EA0603A4F10C046C
:100640000294009CCDE900B400F0D9F803B0BDE8F5
:10065000F08F00200146F9E72DE9F04D81EA03040F
:1006600004F0004B21F0004514464FF0000A23F03F
:10067000004150EA050220D054EA01021DD0C5F322
:100680000A570246C5F31303C1F31300C1F30A5618
:1006900040F4801543F48013A7EB0608101BD646E0
:1006A00008F2FD3873EB050002D308F1010801E000
:1006B00092185B41B8F1000F03DA00200146BDE853
:1006C000F08D00204FF48011064684460EE0171B83
:1006D00073EB050705D3121B63EB050306434CEAD6
:1006E000010C49084FEA300092185B4150EA0107BB
:1006F000EDD152EA030012D082EA040083EA050138
:10070000084305D0101BAB4106D20122002306E0AE
:1007100000224FF0004302E06FF0010253101AEB89
:1007200006004CEB085110EB0A0041EB0B01BDE851
:10073000F04D00F055B8C1F30A52C1F3130140F275
:10074000FF3341F480119A4202DA002001467047DB
:1007500040F233439A42A2F2334202DC5242FFF7A4
:1007600052BEFFF741BE000030B5041E71F1000417
:1007700004DB4FF00044404264EB0101141E73F1AE
:10078000000405DB1C464FF00043524263EB0403B8
:10079000994208BF904230BD064C074D06E0E06824
:1007A00040F0010394E8070098471034AC42F6D3B8
:1007B000FFF790FD80710008A0710008202A06DB79
:1007C000CB17203A41FA02F043EAE07306E041FA1F
:1007D00002F3D040C2F1200291400843194670470D
:1007E00010B5141E73F1000408DA401C41F1000139
:1007F00092185B411A4301D120F0010010BD2DE990
:10080000F04D92469B4611B1B1FA81F202E0B0FA86
:1008100080F220329046FFF7E7FD04460F4640EA9B
:100820000A0041EA0B0153465A46084313D01146C9
:1008300053EA010019D0C8F140025046FFF7E3FD2A
:1008400005460E46504659464246FFF7CDFD084341
:1008500005D0012004E020463946BDE8F08D002097
:10086000054346EAE0762C4337430A986305E40AD9
:10087000A0EB08000022FD0A44EA47540A3002D5E2
:1008800000200146E9E7010510196941DDE9084545
:1008900000196941BDE8F04DA2E7FEE7704772B666
:1008A000FEE70000014800F011BE0000E000002457
:1008B000014800F00BBE0000E0000024014800F0F9
:1008C00005BE0000E0000024F0B503684FF6FC719F
:1008D0006D4C426BD3F884508D4345EA8205C3F8D2
:1008E0008450036853F8845F068F25F47F0545EA3A
:1008F00006451D60836B654D9F180268D2F88830ED
:100900008B4343EA8703C2F88830026852F8883F75
:10091000868F23F4FE0343EA06431360066856F805
:10092000A03FC26B8B4307EB420243EA8203336072
:10093000076857F8A03FB0F8406023F4FE0343EA8D
:1009400006433B60D0E9103603FB06220368D3F868
:10095000B0608E4346EA8206C3F8B0600368B0F820
:100960004860D3F8B07027F4FE0747EA0646C3F89C
:10097000B060D0E91267036806FB0722D3F8AC60C9
:100980008E4346EA8206C3F8AC60D0E91467036878
:1009900006FB0722D3F8F0608E4346EA8206C3F8CE
:1009A000F0600368B0F85860D3F8F07027F47C1753
:1009B00047EA0646C3F8F0600368876D53F8C06FD6
:1009C00002EB47028E4346EA820119600168B0F8E3
:1009D0005C20D1F8C03023F47C1343EA0242C1F812
:1009E000C020016890F86020D1F8C03023F07C531B
:1009F00043EA0262C1F8C020416B04EB8101C16689
:100A0000826B01EB82020267C36B02EBC302426797
:100A1000D0E91034634302EB83028267D0E91234D9
:100A2000634302EB8302C267D0E91434634302EBF1
:100A30008302C0F88020836D02EBC303C0F88430CA
:100A4000C46D826E544303EB8403C0F88830046E97
:100A5000544303EB8402C0F89020AA420AD9D0F88C
:100A60009C20032142F02002C0F89C2080F89810BE
:100A70000120F0BD002200E004C1D0F890308B428C
:100A8000FAD80020F0BD000000AC0040FCD30040CC
:100A9000F0B58E680C69D1E9005744EA0604DFB16D
:100AA00045F080452C43866ED1E906C54F695E430B
:100AB00091F8203045EA0C05B1F80CC0D0F884E07C
:100AC000002047EA03630C4F1D430EEB860345EA03
:100AD0000C45E3E802450AE044EA8544E3E71418DC
:100AE000155C001DD4F8014045EA042410C3CC680D
:100AF0003C5D8442F3D8F0BDCC7000082DE9F84F7E
:100B0000044601F073FA00903CB194F835000228D5
:100B100006D0802161650020E4E00120BDE8F88F67
:100B2000C74DC74EC649183520683036DFF81483E4
:100B3000DFF814938842DFF814A3DFF814B32ED043
:100B4000A8422CD0B0422AD0404528D0484526D0D3
:100B5000504524D0584522D0BD4A183290421ED06C
:100B6000BC4A90421BD0BB4A1832904217D0B94AB7
:100B70003032904213D0B74A483290420FD0B54A33
:100B8000603290420BD0B34A7832904207D0B14ADB
:100B90009032904203D0AF4AA832904209D1026805
:100BA00022F01E0202602068426922F08002426147
:100BB00003E0026822F00E02026027688F42384686
:100BC0004DD0A8424BD0B04249D0404547D04845CF
:100BD00045D0504543D0584541D09D4A18329042A7
:100BE0003DD09C4A90423AD09A4A1832904236D030
:100BF000984A3032904232D0964A483290422ED0B3
:100C0000944A603290422AD0924A7832904226D05A
:100C1000904A9032904222D08E4AA83290421ED002
:100C20008D4A90421BD08C4A1432904217D08A4A87
:100C30002832904213D0884A3C3290420FD0864AE4
:100C4000503290420BD0844A6432904207D0824A9C
:100C50007832904203D0804A8C32974204D1206E81
:100C6000026822F48072026075492068884228D0A8
:100C7000A84226D0B04224D0404522D0484520D0BA
:100C800050451ED058451CD071491831884218D0A3
:100C90007049884215D06F491831884211D06D498A
:100CA000303188420DD06B494831884209D06949BA
:100CB0006031884205D067497831884201D0654962
:100CC0009031016821F0010101600EE001F08EF920
:100CD0000099401A052808D92022626503210020C6
:100CE00084F8351084F8340017E73868C007EDD170
:100CF000534A0121206890422ED0A8422CD0B04205
:100D00002AD0404528D0484526D0504524D05845C3
:100D100022D04F4B183398421ED04E4B98421BD0D6
:100D20004C4B1833984217D04A4B3033984213D06B
:100D3000484B483398420FD0464B603398420BD013
:100D4000444B7833984207D0424B9033984203D0BB
:100D5000404BA833984208D194F85C703F23A06DB3
:100D600007F01F07BB40836007E094F85C30A06D7C
:100D700003F01F0301FA03F34360206890424DD053
:100D8000A8424BD0B04249D0404547D0484545D015
:100D9000504543D0584541D02D4A183290423DD05D
:100DA0002C4A90423AD02B4A1832904236D0294AE7
:100DB0003032904232D0274A483290422ED0254AD3
:100DC000603290422AD0234A7832904226D0214A7B
:100DD0009032904222D01F4AA83290421ED01E4A22
:100DE00090421BD01C4A1432904217D01A4A283223
:100DF000904213D0184A3C3290420FD0164A5032DB
:100E000090420BD0144A6432904207D0124A783292
:100E1000904203D0104A8C3290420BD1D4E919028F
:100E20004260E06E30B1026822F480720260D4E960
:100E30001C024260002084F8351084F834006DE60E
:100E4000100002405800024070000240880002403A
:100E5000A000024010040240085402582DE9F05F3F
:100E600028B190F83510022904D080214165012075
:100E7000BDE8F09F904C904B0168183C18338E4AA7
:100E8000DFF83C92A1428D4CDFF838E28E4FDFF85C
:100E90003CB2DFF83CA28F4D8F4E31D091422FD023
:100EA00099422DD0A1422BD0494529D0714527D058
:100EB000B94225D0DFF810C20CF1180C61451FD0E3
:100EC000DFF808C2ACF1600C614519D0DFF8FCC155
:100ED000ACF1480C614513D0DFF8F0C1ACF1300C37
:100EE00061450DD0DFF8E4C1ACF1180C614507D0C5
:100EF000594505D0514503D0A94201D0B1422CD16A
:100F0000DFF8B4C14FF0040880F83580ACF1180C5C
:100F100061451DD091421BD0994219D0A14217D0F2
:100F2000494515D0714513D0B94211D066481830E3
:100F300081420DD065486038814209D06348483805
:100F4000814205D061483038814201D05F4818386D
:100F5000086820F001000860ABE0D1F800C02CF078
:100F60000E08DFF854C1C1F80080ACF1180C01681C
:100F7000614527D0914225D0994223D0A14221D06A
:100F800049451FD071451DD0B9421BD0DFF838C18B
:100F90000CF1180C614515D0DFF830C1ACF1600CD4
:100FA00061450FD0DFF824C1ACF1480C614509D090
:100FB000DFF818C1ACF1300C614503D0DFF80CC18B
:100FC000ACF1180CD1F800C02CF0010CC1F800C035
:100FD000DFF8E4804FF0010C0168A8F118084145E2
:100FE00046D0914244D0994242D0A14240D0494596
:100FF0003ED071453CD0B9423AD0334A1832914282
:1010000036D0324A603A914232D0304A483A914220
:101010002ED02E4A303A91422AD02C4A183A914288
:1010200026D0594524D0514522D0A94220D0B142E2
:101030001ED02A4A91421BD0284A1432914217D01E
:10104000264A2832914213D0244A3C3291420FD092
:10105000224A503291420BD0204A6432914207D04A
:101060001E4A7832914203D01C4A8C32914218D1E8
:10107000016E0A6822F480720A6090F85C20816D2B
:1010800002F01F020CFA02F24A60D0E919124A601B
:10109000C16E31B10A6822F480720A60D0E91C1274
:1010A0004A600022016D80F835C080F8342001B11B
:1010B00088470020DCE6000028000240580002407B
:1010C0007000024088000240A0000240700402400C
:1010D00088040240A0040240B804024008540258A8
:1010E00070B5044600F082FF0546601C02D004483B
:1010F0000078044400F07AFF401BA042FAD370BD90
:101100004800002410B590F89830012B09D0022B2C
:1011100007D0D0F89C1041F00201C0F89C100120CB
:1011200010BD03689C6D0C4203D1DC6D44F00104DA
:1011300004E09C6D31EA04041FD00324DC658B05B8
:1011400005D50368D3F8E0401443C3F8E0404B05ED
:1011500005D50368D3F8E4401443C3F8E4400068BD
:10116000084A01EA0203446D074A1C4344651068BB
:1011700040EA91701060002010BDDC6D44F0020464
:10118000DCE70000FFFFCF3F14A8004070B5044625
:1011900090F89800022804D0D4F89C0040F0080091
:1011A0000DE02068D0F8C03013F07C5F0BD0D0F891
:1011B000C4309B020CD5D4F89C0040F40070C4F8F5
:1011C0009C00012070BDD4F89C0040F02000F6E7A0
:1011D000D0F8C400C0F3044520462B46FFF758FC66
:1011E00021680120A840C1F8D000C4F89400002074
:1011F00070BD704790F89830012B07D0D0F89C1044
:1012000041F00401C0F89C100120704761B10068F2
:10121000012913D0D0F8B01021F0FE4141EA02615B
:10122000C0F8B010002070470068D0F8F01021F02E
:101230007C5141EA0261C0F8F010F3E7D0F8A01049
:1012400021F0FE4141EA0261C0F8A010EAE770B562
:1012500090F89820012A09D0022A07D0D0F89C10D3
:1012600041F00201C0F89C10012070BD0B68CA68F3
:1012700083B10B69072A43EA427325D00C7A4A6985
:1012800042EA84724968006F00EBC100C0E9003295
:10129000002070BD072A0DD00C7AD6060D8A4B6946
:1012A00043EA847246EA0543C06E49681A4340F82F
:1012B0002120EDE70B8A4FF06055D1E9062442EA80
:1012C000034245EA0423EFE78A69DBE730B590F88B
:1012D0009850039C012D07D0D0F89C1041F00401D8
:1012E000C0F89C10012030BD0D01016845EA820064
:1012F00040EA43002043C1F88000002030BD10B513
:1013000004000FD000F064FC2068C16D21F00301DF
:10131000C165204600F08CFB0020C4F89C0084F8D6
:10132000980010BD012010BD7047890104D50068E8
:10133000816921F00101816170470000F0B590F8EA
:1013400098500024022D04D0D0F89C1041F00801E0
:1013500029E0402905D0412929D0056D8D4219D9B0
:1013600042E00568D5F8A06016F4FE0F12D0D5F85B
:10137000A460760613D0D5F8A460F60105D5D5F89B
:10138000A06016F0004F00D50124D5F8A470466F78
:10139000456C24E0D0F89C1041F0200103E0D0F827
:1013A0009C1041F48071C0F89C100120F0BD0568CC
:1013B000D5F8B06016F4FE0FECD0D5F8B460760620
:1013C000EDD0D5F8B460F60105D5D5F8B06016F0CB
:1013D000004F00D50124D5F8B470866FC56CC7F3F3
:1013E00005273C44654302E0456DC66F4D4306EB5F
:1013F00085052E6816F0804656602E6836D026F099
:1014000060461660D5F800C000262E4F0CF0005C38
:10141000C2F808C0D5F800C00CF0004CC2F810C0EB
:10142000B5F804C01FFA8CFCC2F81CC0D5F804C083
:10143000CCF3034CC2F80CC0D5F804C00CF4801CEB
:10144000C2F814C0D5F804C00CF4001CC2F818C0CF
:10145000D5F804C0CCF3066CC2F820C0D5F804C09F
:1014600008354FEADC7CC2F824C008E0C6F38A469F
:10147000C7E700BF15F806C003F806C0761CD2F80F
:101480000CC017F80CC0B445F4D840290AD0412943
:101490000CD020294FF001020CD200688A40C0F81D
:1014A00098200DE00068C0F8A84009E00068C0F886
:1014B000B84005E0006801F01F018A40C0F89C2098
:1014C0000020F0BDCC700008704700002DE9FF5FE0
:1014D000DFF80CB304460BF10401DBF800002568CB
:1014E0000F68AA468007D5F85090696DD5F85080EE
:1014F0006E6D2A6DD5F854C02B6D00EA8770009090
:1015000009F470496F6D286D01EA09010191DAF85B
:101510005410DAF85490DAF8505008F00F0806EA40
:101520000806029602F0F00203F071536FEA090612
:101530001F4000F060700CEA020CCDF80CC0F20500
:1015400001EA00090CD4E843C00509D400214FF496
:101550008073CAF85030CBF800102046FFF7B4FF74
:10156000700512D4E84340050FD4206800234FF4DF
:101570008068D0F8DC20D0F8E410C0F85080CBF8B8
:1015800000301140204600F068FBDFF858A20098B8
:1015900050B12268830F00EA0A001065CBF80030D2
:1015A00020460099FFF725FE019850B12268830F6D
:1015B00000EA0A001065CBF800302046019900F0DF
:1015C0004EFB029850B12268830F00EA0A001065B2
:1015D000CBF800302046029900F0A8FA039850B1E9
:1015E0002268830F00EA0A001065CBF8003020461D
:1015F000039900F0D3FA30050CD4E843000509D470
:10160000236800204FF400621A65CBF800002046E2
:1016100000F026FBB00512D4E84380050FD4206803
:1016200000234FF40078D0F8D820D0F8E010C0F8AC
:101630005080CBF800301140204600F00FFB300303
:101640000CD4E843000309D4236800204FF400229F
:101650001A65CBF80000204600F066FAF0030CD4BF
:10166000E843C00309D4236800204FF480321A6590
:10167000CBF80000204600F0EFFA70030CD4E843EA
:10168000400309D4226800204FF480231365CBF86F
:101690000000204600F0DFFAB0030FD4E8438003D7
:1016A0000CD4236800204FF400321A65CBF80000F8
:1016B000D4F89C0040F08000C4F89C00B9F1000F01
:1016C0000BD022684FEA997309EA0A001065CBF83B
:1016D000003049462046FFF728FE5FB12268BB0F65
:1016E00007EA0A001065CBF80030D4F89C003843B4
:1016F000C4F89C003C492068884268D160688146F3
:101700008068800763D0D9F82060D9F82410D9F810
:101710002080D9F82400D9F820C0D9F82470D9F84D
:101720002030D9F82450D9F8202003F4FC4306F0E7
:101730000F0AD9F824601D40D9F824B008F0300809
:101740000CF4C07C02F4F02211EA0A0100EA080855
:1017500007EA0C0706EA0206D9F820A004D0C9F867
:101760002010204600F074FAB8F1000005D061683E
:1017700008624146204600F06DFA6FEA0B00400611
:101780000ED46FEA0A0040060AD460684021C36B99
:10179000C26B01622046190C02F03F0200F059FAB8
:1017A0002FB1606807623946204600F050FA35B123
:1017B00060680562D4F89C002843C4F89C0036B1E8
:1017C00060680662D4F89C003043C4F89C00D4F8EA
:1017D0009C00002802D02046FFF7A6FDBDE8FF9F31
:1017E00010A80040FFFFCF3F00A000402DE9F041CE
:1017F00094B08D494C2204466846FEF7B4FD64B1AE
:101800008A4D2068A84202D100F58070606094F88B
:1018100098004FF0000820B108E0012014B0BDE8A6
:10182000F081204684F8998000F022F920688169CF
:1018300021F01001816100F0D9FB0327064604E086
:1018400000F0D4FB801B0A2811D8206880690007AB
:10185000F6D42068816941F00101816100F0C6FB86
:1018600006460DE000F0C2FB801B0A2808D9D4F818
:101870009C0040F00100C4F89C0084F89870CCE70C
:1018800020688069C007EDD02068816941F00201BD
:101890008161207C01282068816937D041F04001B6
:1018A0008161607C01282068816932D021F4804107
:1018B0008161A07C0128206881692DD041F480518C
:1018C00081612068A268816921F4407111438161BE
:1018D0002068816921F0A40181612068016921F0FB
:1018E00010010161E068012819D010B302281BD053
:1018F0002068816941F0800181612068016941F0BF
:1019000010010161E06803280ED012E021F04001CF
:10191000C6E741F48041CBE721F48051D0E720684D
:10192000816941F0040103E02068816941F02001F0
:101930008161207E6FF0FF02D4E90773A68A11024D
:10194000400602EB0727A0F10070384327685B1EB2
:10195000184301EB06463043F861A068B0F5407FBC
:1019600011D104F12800A68C6FF00F0C89C801EB8F
:101970000641401E02EB0322104322680CEB0713C2
:1019800018430843D060206E30B12068626ED0F8F2
:10199000C0101143C0F8C010D4E917126846D142F4
:1019A00009D02168A36E51F8C82F50F8233022F0D7
:1019B00007021A430A60216C49B12168626C51F830
:1019C000BC3F50F8226023F0070232430A60A16C4A
:1019D00051B12168E36C51F8BC2F50F8233022F04C
:1019E000700242EA03120A60216D51B12168626DF2
:1019F00051F8BC3F50F8220023F4E06242EA002094
:101A000008602068A84204D16068816821F0030161
:101A10008160C4F894800121C4F89C8084F89810F7
:101A20002046FEF751FFF9E6DC70000800A00040F8
:101A300010B500680B49884213D10B48016821F4A6
:101A4000807101600948032100F00CF9132000F0B7
:101A500037FB152000F034FBBDE810403F2000F0BC
:101A60002FBB10BD00A00040EC440258000C0258EF
:101A700010B5B4B0044614212EA8FEF78DFCB82191
:101A80006846FEF789FC25492068884244D1002039
:101A90004FF40041CDE900104A0368461B9200F064
:101AA000DFFC08B1FEF7FBFE1D48016841F48071C0
:101AB0000160006800F48070339019480C380168A8
:101AC00041F00801016000680923032100F00800CB
:101AD000339000202E9102222EA9CDE92F20CDE9AE
:101AE0003103104800F06EF900221320114600F077
:101AF00005FB132000F0F5FA00221520114600F036
:101B0000FDFA152000F0EDFA00223F20114600F00A
:101B1000F5FA3F2000F0E5FA34B010BD00A0004017
:101B2000EC440258000C02587047000030B5C90759
:101B30008DB02BD040216A460AABFFF7FFFB00288F
:101B400024D10098112813D0122813D013281DD1A6
:101B50005FF002040E4804EB041100EB01100AA927
:101B6000054604F0B7FE0B480121025D22B10BE0EF
:101B70000024EFE70124EDE7074A95ED080A02EBA0
:101B8000840282ED000A015585F858100DB030BD71
:101B9000D40300240C00002478000024704790F83F
:101BA0009810012907D0D0F89C1041F00401C0F82A
:101BB0009C1001207047022180F8981000220168D3
:101BC0008B6923F001038B61C0F89C20104670479D
:101BD00010B590F898100022022906D0D0F89C1079
:101BE00041F00801C0F89C1012E0016803238C69E1
:101BF00044F001048C6101680DE0322A0AD900BF6B
:101C0000D0F89C1041F00101C0F89C1080F8983089
:101C1000012010BD521C8C69E407EED08C690022B3
:101C200024F010048C61016802E0322AE8D8521CCA
:101C30008C692407F9D48C690023012244F0020442
:101C40008C61C0F8943080F89820184610BD704719
:101C500070477047704770477047704770477047CC
:101C6000704700002DE9F04F4C4D00224FF0010A63
:101C70004FF00F0B8BE000BF0AFA02F919EA0103DB
:101C80007DD022F0030606F1B0469407D6F808C4CA
:101C9000270FDFF80C810BFA07FE40450EEA0C0413
:101CA00002D14FF0000C39E0DFF8F8C0604502D1F6
:101CB0004FF0010C32E0DFF8F0C0604502D14FF088
:101CC000020C2BE0DFF8E4C0604502D14FF0030CBA
:101CD00024E0DFF8DCC0604502D14FF0040C1DE0C9
:101CE000DFF8D0C0604502D14FF0050C16E0DFF8F8
:101CF000C8C0604502D14FF0060C0FE0DFF8BCC051
:101D0000604502D14FF0070C08E0DFF8B4C0604531
:101D100002D14FF0090C01E04FF00A0C0CFA07FC5D
:101D2000A44513D12C689C432C606F684FF0B044DD
:101D30009F436F6067689F43676027689F43276082
:101D4000D6F8084424EA0E04C6F8084406680323BB
:101D5000D7084FEA42084FEA427C03FA08F34FEAF9
:101D6000DC6C1E4306600BFA0CF400EB87073E6A3E
:101D7000A6433E62C4689C43C460446800E005E03A
:101D800024EA0904446084689C438460521C31FA4C
:101D900002F37FF471AFBDE8F08F000080000058BF
:101DA000000002580004025800080258000C0258B3
:101DB000001002580014025800180258001C025863
:101DC000002402582DE9F84F03247A4D00234FF0E8
:101DD00001094FF0B04B4FF00F0AE4E009FA03F6A7
:101DE000324078D00F7907F00307012F01D0022F7E
:101DF0001AD187684FEA430ED1F80CC004FA0EF8E6
:101E000027EA08070CFA0EFC4CEA070CC0F808C0D9
:101E1000476891F804C0B743CCF3001C0CFA03FCEC
:101E20004CEA070CC0F804C00E79F643B6070BD095
:101E3000C6684FEA43088F6804FA08FC26EA0C06D5
:101E400007FA08F73743C7600E7906F00306022E3B
:101E500012D1DE080F694FEA437C00EB8606B646D6
:101E6000366A4FEADC6C0AFA0CF807FA0CF726EA35
:101E700008063743CEF820700F7906684FEA43080A
:101E800007F0030704FA08FC07FA08F726EA0C062D
:101E9000374307604E6816F4403F1CD0464E376803
:101EA00047F00207376036689F0706F00206009683
:101EB00023F0030606F1B046B6463F0FD6F8086495
:101EC000DFF8F8800AFA07FC404526EA0C0603D141
:101ED0004FF0000C3AE065E0DFF8E4C0604502D165
:101EE0004FF0010C32E0DFF8DCC0604502D14FF06A
:101EF000020C2BE0DFF8D0C0604502D14FF0030C9C
:101F000024E0DFF8C8C0604502D14FF0040C1DE0AA
:101F1000DFF8BCC0604502D14FF0050C16E0DFF8D9
:101F2000B4C0604502D14FF0060C0FE0DFF8A8C046
:101F3000604502D14FF0070C08E0DFF8A0C0604513
:101F400002D14FF0090C01E04FF00A0C0CFA07FC2B
:101F50004CEA060CCEF808C44F68DBF80060FF02BC
:101F600026EA020600D516435F46CBF80060D1F89A
:101F700004C0DBF804605FEA8C2C26EA020600D578
:101F800016437E606E684F6826EA0206BF0300D5DE
:101F900016436E602E684F6826EA0206FF0300D5DE
:101FA00016432E605B1C0A6832FA03F67FF416AF04
:101FB000BDE8F88F80000058F44402580000025831
:101FC0000004025800080258000C02580010025881
:101FD0000014025800180258001C0258002402582D
:101FE0000AB1816170470904FBE70000014880687D
:101FF00070470000480000240248816802781144BC
:102000008160704748000024032010B500F096F866
:1020100001F038F80F4A104914681368C4F303221A
:1020200003F00F038A5CC95C02F01F0201F01F017C
:10203000D0400A4A20FA01F11160094908600F20D6
:1020400000F010F808B1012010BD00F02BF80020BE
:1020500010BD0000184402585071000858000024B8
:102060005400002470B50D4D04462878A0B14FF4FB
:102070007A71B1FBF0F00A490968B1FBF0F001F0A8
:1020800030FB48B9102C07D200222146501E00F028
:1020900035F800206C6070BD012070BD4800002440
:1020A00054000024054808B5016841F002010160B0
:1020B000006800F00200009008BD0000F4440258DF
:1020C00000280DDB410900F01F028900012001F109
:1020D000E0219040C1F88001BFF34F8FBFF36F8FB5
:1020E0007047002809DB410900F01F028900012028
:1020F00001F1E0219040C1F8000170470E4BF0B4AF
:102100001B680D46C3F30223C3F10706042E00D952
:102110000426191D072901D2002300E0DB1E01243B
:1021200004FA06F19C40491E2940641E994014405F
:102130002143F0BC03F025BC0CED00E0064900F0A3
:10214000070210B54FF6FF040868044B204040EA30
:1021500002201843086010BD0CED00E00000FA05F5
:10216000134970B50A68D243520705D5096801F0D2
:102170000701814213D118E00A6822F007020243E6
:102180000A60FFF733FF0A4D4FF47A760446083DA4
:1021900007E000BFFFF72AFF001BB04201D9012072
:1021A00070BD2868C0438004F4D4002070BD0000D6
:1021B0000C48025810B500F01FFF05490968054A90
:1021C000C1F30211515C01F01F01C84010BD0000B5
:1021D0002044025850710008494930B5484C0B1D45
:1021E0000A68143409681D68246802F00303C5F303
:1021F0000012C1F30531C4F3CC04002914FB02F230
:1022000000EE102AF8EE400A75D03F4A9FED3D1AC5
:10221000B7EE000A6BB1DFED3D1A012B01D0022BA6
:1022200064D002EE101A1168F8EE422A81EEA22A5A
:1022300021E0334C283C23689B0612D5344B24689C
:1022400001EE901A1168C4F3C104F8EE612AE3406C
:1022500001EE903AC1F30801F8EE611A81EEA22A6C
:102260000BE001EE901ADFED2B2A00BFF8EE611AA9
:10227000116882EEA12AC1F3080101EE901A1168DB
:10228000F8EE611A40EE811A71EE800A62EE200AC1
:10229000C1F3462101EE101AB8EE411A31EE001AD0
:1022A000C0EE811ABCEEE11A80ED001A1168C1F38C
:1022B000064101EE101AB8EE411A31EE001AC0EED6
:1022C000811ABCEEE11A80ED011A1168C1F30661B2
:1022D00001EE101AB8EE411A31EE000A80EE801AB3
:1022E000BCEEC10A80ED020A30BD04E001EE901A96
:1022F000DFED092ABAE70021016041608160F3E760
:102300002844025800000039384402580024744A16
:102310000090D0030024744C001BB74B494930B5E2
:10232000484C0B1D0A681C3409681D68246802F0BB
:102330000303C5F30022C1F30551C4F3CC04002903
:1023400014FB02F200EE102AF8EE400A75D03F4A64
:102350009FED3D1AB7EE000A6BB1DFED3D1A012B80
:1023600001D0022B64D002EE101A1168F8EE422A56
:1023700081EEA22A21E0334C283C23689B0612D52B
:10238000344B246801EE901A1168C4F3C104F8EECE
:10239000612AE34001EE903AC1F30801F8EE611AB8
:1023A00081EEA22A0BE001EE901ADFED2B2A00BF8E
:1023B000F8EE611A116882EEA12AC1F3080101EE5C
:1023C000901A1168F8EE611A40EE811A71EE800AD7
:1023D00062EE200AC1F3462101EE101AB8EE411A4E
:1023E00031EE001AC0EE811ABCEEE11A80ED001A3F
:1023F0001168C1F3064101EE101AB8EE411A31EE30
:10240000001AC0EE811ABCEEE11A80ED011A1168C3
:10241000C1F3066101EE101AB8EE411A31EE000A5E
:1024200080EE801ABCEEC10A80ED020A30BD04E0E5
:1024300001EE901ADFED092ABAE700210160416040
:102440008160F3E7284402580000003940440258F4
:102450000024744A0090D0030024744C001BB74B36
:102460002DE9FE4F0546DFF800A450F8081B0024B4
:10247000FD4FC943019005F1280026460AF1240AC0
:10248000009008011DD4686E50B1B0F5801F0CD0CB
:10249000B0F5001F0ED0B0F5401F1ED001240FE094
:1024A000386840F40030386017E00198022102F0EB
:1024B0007BF903E00098022102F006FA04000CD038
:1024C00026462888C043C00523D4A86D05281ED2FF
:1024D000DFE800F00C11161B1B006A6EDAF8001022
:1024E00021F440111143CAF80010EAE7386840F4BB
:1024F0000030386009E00198002102F055F903E04E
:102500000098002102F0E0F90446C4B100E0012483
:1025100026462888DFF85083C04308F12C08400580
:102520002FD4D5F8A400B0F5C00F28D010DCB8B176
:10253000B0F5001F19D0B0F5800F0FD11AE0AA6DC9
:10254000DAF8001021F007011143CAF80010E0E7A3
:10255000B0F5000F13D0B0F5200F10D001240FE01C
:10256000386840F40030386009E00198002102F03A
:102570001BF903E00098002102F0A6F9044694B18B
:1025800026462888C043000530D4D5F8A800B0F10D
:10259000407F29D011DCC0B1B0F1807F1AD0B0F1FA
:1025A000007F10D11BE0D5F8A420D8F8001021F44A
:1025B00060011143C8F80010E3E7B0F1806F13D059
:1025C000B0F1A06F10D001240FE0386840F4003063
:1025D000386009E00198002102F0E6F803E0009875
:1025E000002102F071F9044694B126462868DFF80C
:1025F00078B2C0430BF1200B80011FD4E86CD8B136
:1026000010280FD0202812D0302815D0012414E033
:10261000D5F8A820D8F8001021F0E0611143C8F8DF
:102620000010E3E7386840F40030386004E00198B7
:10263000022102F0B9F8044674B126462888C04346
:10264000C0042BD4E86DB0F5005F20D00DDCA0B144
:10265000B0F5805F0FD115E0EA6CDBF8001021F0D7
:1026600030011143CBF80010E8E7B0F5405F13D01C
:10267000B0F5804F10D001240FE0386840F40030EE
:10268000386009E00198002102F08EF803E000981C
:10269000002102F019F904468CB126462888C0436F
:1026A000800429D4286EB0F5403F23D010DC08B355
:1026B000B0F5803F14D0B0F5003F0FD115E0EA6DC2
:1026C000DAF8001021F4E0411143CAF80010E5E700
:1026D000B0F5802F0ED0B0F5A02F0BD001240AE06A
:1026E0000198012102F060F803E00098012102F056
:1026F000EBF8044694B126462888C04340042AD407
:10270000D5F8AC00B0F1405F23D010DC08B3B0F1D5
:10271000805F14D0B0F1005F0FD115E02A6EDAF8B7
:10272000001021F4E0211143CAF80010E4E7B0F1F1
:10273000804F0ED0B0F1A04F0BD001240AE00198D9
:10274000012102F031F803E00098012102F0BCF809
:10275000044674B126462888C04300041FD4E86E9E
:10276000D8B1B0F1805F0ED0B0F1005F10D001247D
:1027700014E0D5F8AC20D8F8001021F0E041114366
:10278000C8F80010E7E7386840F40030386004E02B
:102790000198012102F008F8044674B12646286821
:1027A000C043C0011ED4A86CD0B101280ED00228AD
:1027B00011D0032814D0012413E0EA6EDAF80010D7
:1027C00021F040511143CAF80010E8E7386840F49E
:1027D0000030386004E00198022101F0E5FF044672
:1027E0006CB126462868C043400255D41F48016892
:1027F00041F480710160FFF7F9FB81460EE0AA6C9D
:10280000DBF8001021F003011143CBF80010E9E7D9
:10281000FFF7ECFBA0EB090064283BD813480068E5
:10282000C005F5D5BCBBDFF84090B5F8B01009F194
:102830004409D9F8000001F4407100F44070884266
:1028400011D0D9F80010D9F8002021F4407142F4D9
:102850008032C9F80020D9F8002022F48032C9F86B
:102860000020C9F8001003E02C4402580048025828
:10287000D5F8B000B0F5807F19D1FFF7B7FB029013
:1028800011E000BFFFF7B2FB0299411A41F2883014
:10289000814208D9032426462878DFF81494C043DF
:1028A000C00721D03CE0D9F800008007EAD5D5F870
:1028B000B010C1F301200328FE480DD0016821F4B7
:1028C0007C510160B5F8B020D9F80010C2F30B02BA
:1028D0001143C9F80010DFE7F74A036802EA111252
:1028E00023F47C511143ECE7A86F182816D005DCBF
:1028F000A0B1082808D0102804D10AE020280DD063
:1029000028280BD001240AE00198012101F04CFF96
:1029100003E00098012101F0D7FF044664B1264688
:102920002878C04380071ED4686F062819D2DFE8D4
:1029300000F0160C11161616AA6FD9F8001021F027
:1029400038011143C9F80010EAE70198012101F0AC
:102950002BFF03E00098012101F0B6FF04467CB193
:1029600000E0012426462878C04340071FD4D5F84C
:102970009000062819D2DFE800F0160C1116161682
:102980006A6FD9F8001021F007011143C9F800104F
:10299000E9E70198012101F007FF03E00098012118
:1029A00001F092FF0446A4B100E0012426462878F5
:1029B000C04380062BD4D5F88C00B0F1405F24D002
:1029C00011DC10B3B0F1805F15D0B0F1005F10D111
:1029D00016E0D5F89020D8F8001021F00701114337
:1029E000C8F80010E3E7B0F1804F0ED0B0F1A04F6F
:1029F0000BD001240AE00198002101F0D5FE03E08C
:102A00000098022101F060FF044694B12646287820
:102A1000C04340062BD4D5F89800B0F5406F24D0C1
:102A200011DC10B3B0F5806F15D0B0F5006F10D188
:102A300016E0D5F88C20D9F8001021F0E0411143C0
:102A4000C9F80010E3E7B0F5805F0ED0B0F5A05FE5
:102A50000BD001240AE00198002101F0A5FE03E05B
:102A60000098022101F030FF044694B126462878F0
:102A7000C04300062BD4D5F89C00B0F5C04F24D03D
:102A800011DC10B3B0F5005F15D0B0F5804F10D158
:102A900016E0D5F89820D8F8001021F4E051114341
:102AA000C8F80010E3E7B0F5004F0ED0B0F5204FA6
:102AB0000BD001240AE00198002101F075FE03E02B
:102AC0000098022101F000FF044654B12646287800
:102AD000C04300071ED4D5F88000B0F5805F0AD04F
:102AE0000FE0D5F89C20D8F8001021F46041114384
:102AF000C8F80010EBE70098022101F0E5FE00B1F4
:102B00000126D5F88020D9F8001021F44051114356
:102B1000C9F800102878C043C00613D4D5F8940033
:102B2000B0F5807F05D10098022101F0CDFE00B103
:102B30000126D5F89420D8F8001021F440711143F3
:102B4000C8F800102868C043000316D4D5F8A000C8
:102B500038B1B0F5803F09D0B0F5003F0BD001246B
:102B60000AE00198002101F01FFE03E00098022115
:102B700001F0AAFE04468CB126462868C0434003F3
:102B800022D4D5F88400B0F5801F11D0B0F5001F15
:102B900013D0B0F5401F15D0012414E0D5F8A020C3
:102BA000D8F8001021F440311143C8F80010E4E7D0
:102BB000386840F40030386004E00098012101F0EA
:102BC00083FE04465CB126462868C043C0031CD47B
:102BD000286D70B1B0F5803F10D0012414E0D5F815
:102BE0008420D9F8001021F440111143C9F80010D5
:102BF000EAE7386840F40030386004E001980221C8
:102C000001F0D2FD0446DCB126462868C0438000AE
:102C100005D40098022101F057FE00B10126286872
:102C2000C04380031BD4E86FB8B1B0F5807F10D0EB
:102C3000B0F5007F11D0B0F5407F0ED001240DE03B
:102C40002A6DDBF8001021F480311143CBF800101D
:102C5000DBE7386840F4003038607CB326462868EB
:102C6000C043C00207D42A6FDAF8001021F00041F7
:102C70001143CAF800102868C043800207D4AA6E26
:102C8000DAF8001021F080711143CAF800102868AA
:102C9000C043400009D40748016821F400410160A5
:102CA0000168D5F8B420114301602868C04306E0EC
:102CB0005444025810440258CFFFFF001DE007D4CF
:102CC0006A6DDBF8001021F040511143CBF8001081
:102CD0002868C043000208D4D5F88820D9F800102D
:102CE00021F440011143C9F8001028790024C043A1
:102CF00000F00100204309D00EE0EA6FD9F800107F
:102D000021F440711143C9F80010A8E7019800218F
:102D100001F04AFD00B106462879C04300F00200E8
:102D2000204305D10198012101F03EFD00B1064686
:102D30002879C04300F00400204305D10198022106
:102D400001F032FD00B106462879C04300F00800CA
:102D5000204305D10098002101F0B6FD00B10646E0
:102D60002879C04300F01000204305D100980121CC
:102D700001F0AAFD00B106462879C04300F020000A
:102D8000044304D10098022101F09EFD00B916B160
:102D90000120BDE8FE8F0020FBE700002DE9F05F79
:102DA00004000F467ED0DFF83882D8F8000000F02B
:102DB0000F00B8420CD2D8F8001021F00F013943AF
:102DC000C8F80010D8F8000000F00F00B84269D130
:102DD0002078844D40070AD52069296801F07001E8
:102DE000884204D9296821F07001014329602078C4
:102DF0007C4E361D00070AD56069316801F070010C
:102E0000884204D9316821F0700101433160207893
:102E1000C0060AD5A069316801F4E061884204D98E
:102E2000316821F4E061014331602078DFF8B4B10A
:102E300080060BF1080B0CD5E1695846DBF8002041
:102E400002F07002914204D9026822F070020A4333
:102E50000260207880070AD5E068296801F00F0138
:102E6000884204D9296821F00F01014329602078A4
:102E7000C0073ED05B49A2682868183920F470600A
:102E8000104328606068022818D0032819D0096808
:102E9000012819D0490700294ADADFF848A1AAF128
:102EA000080A00E044E0DAF8002022F007020243BA
:102EB000CAF80020FFF79AF8814612E009688903F2
:102EC000E9E709688901E6E7C905E4E7FFF78EF855
:102ED000A0EB090141F28830814202D90320BDE80C
:102EE000F09F6168DAF8000000F03800B0EBC10F25
:102EF000ECD1207880070AD5E068296801F00F013D
:102F0000884204D2296821F00F0101432960D8F8D2
:102F10000010404601F00F01B9420BD9016821F0C1
:102F20000F0139430160006800F00F00B84201D082
:102F30000120D4E7207840070AD52069296801F0EC
:102F40007001884204D2296821F070010143296090
:102F5000207800070AD56069316801F07001884265
:102F600004D2316821F07001014331602078C0063D
:102F70000AD5A069316801F4E061884204D2316861
:102F800021F4E06101433160207880060CD5E169CD
:102F90005846DBF8002002F07002914204D2026829
:102FA00022F070020A43026000F06CF80E492A68B1
:102FB0002B68C2F3032203F00F038A5CC95C02F0A2
:102FC0001F0201F01F01D040084A20FA01F11160F0
:102FD0000749086007480068BDE8F05FFFF742B89E
:102FE0000020005218440258507100085800002474
:102FF000540000244C00002430B500F043F80B4A84
:103000000B490C4B15681468C5F3032204F00F0438
:103010008A5C095D02F01F0201F01F01D040064AE0
:1030200020FA01F119601060084630BD18440258BA
:1030300050710008580000245400002400B5FFF728
:10304000DBFF05490968054AC1F30211515C01F033
:103050001F01C84000BD00001C4402585071000808
:1030600000B5FFF7C9FF05490968054AC1F3022108
:10307000515C01F01F01C84000BD00001C44025813
:1030800050710008454970B545480968434B103BED
:1030900011F0380208D00111082A03D0102A0BD0F1
:1030A000182A0BD0084670BD19688906FBD5196827
:1030B000C1F3C101C84070BD3A4870BD3749374DB2
:1030C00018310C1D24350A68096826682D6802F03D
:1030D000030406F00102C1F30511C5F3CC0515FB8D
:1030E00002F200EE102AB8EE400AE9B32F4ADFEDF3
:1030F0002E0AB7EE001A6CB1DFED2D1A012C01D0AB
:10310000022C43D002EE101A1068F8EE422A81EE2B
:10311000A22A1EE01C68A40611D51B6801EE901AB5
:103120001168C3F3C103F8EE612AD84001EE900A9A
:10313000C1F30800F8EE611A81EEA22A0BE001EE5D
:10314000901ADFED1C2A00BFF8EE611A106882EEBB
:10315000A12AC0F3080001EE900AF8EE611A40EED1
:10316000201A31EE810A00E015E022EE000A106814
:10317000C0F34620401C00EE900AF8EE600A80EE94
:10318000201ABCEEC10A10EE100A70BD01EE901AB2
:10319000DFED092AD8E7002070BD00001044025876
:1031A0000090D00300366E01000000393044025810
:1031B0000024744A0024744C001BB74B2DE9F05FC7
:1031C00004007DD0FF4F2078FE4D1837DFF8F483E0
:1031D000103DC00748D0D8F80000396800F038002A
:1031E000102815D0182803D101F0030002280FD0B1
:1031F0006068B0F5803F12D010B1B0F5A02F18D0A4
:10320000286820F480302860286820F4802009E0B5
:103210002868800328D560680028D2D024E0286878
:1032200040F480302860606888B1FEF7DFFE064613
:1032300009E0286840F480202860F0E7FEF7D6FE19
:10324000801B64287ED828688003F7D50CE0FEF741
:10325000CDFE064605E000BFFEF7C8FE801B6428D1
:10326000F0D828688003F7D42078800756D5D8F89E
:103270000000DFF85093396810F03800A9F10C090C
:103280000ED0182801D188070AD0E068A8B32968B1
:1032900021F0190101432960FEF7A8FE064628E047
:1032A0002868400702D5E06800288AD0E1682868CD
:1032B00020F0190008432860FEF798FE064606E055
:1032C000D2E000BFFEF792FE801B0228BAD8286821
:1032D0004007F7D5217CD9F8002022F0FE4242EACF
:1032E0000161C9F8001019E0FEF780FE801B02287A
:1032F000A8D828684007F7D5ECE7FFE7286820F052
:1033000001002860FEF772FE064604E0FEF76EFE3E
:10331000801B022896D828684007F7D42078C0067A
:1033200046D5D8F80000DFF89C92396800F03800E4
:10333000A9F10409082812D0182805D101F00300CA
:10334000012800E0CEE00AD0E0690028286820D0FB
:1033500040F080002860FEF749FE064615E0286828
:10336000C00502D5E06980287ED194F82010D9F8F4
:10337000002022F07C5242EA0161C9F8001017E0F7
:10338000FEF734FE801B0228A0D82868C005F7D5B8
:10339000EBE720F080002860FEF728FE064604E0F8
:1033A000FEF724FE801B022890D82868C005F7D4B9
:1033B0002078000729D58348616964300029814657
:1033C000016811D041F001010160FEF70FFE0646D1
:1033D00005E000BFFEF70AFE801B022888D8D9F856
:1033E00000008007F6D510E021F001010160FEF732
:1033F000FDFD064605E000BFFEF7F8FD801B022834
:1034000070D8D9F800008007F6D42078800623D53C
:10341000A0690028286810D040F480502860FEF78A
:10342000E5FD064605E000BFFEF7E0FD801B022833
:1034300058D828688004F7D50EE020F48050286022
:10344000FEF7D4FD064604E0FEF7D0FD801B0228FF
:1034500048D828688004F7D42078400751D5DFF891
:103460006891D9F8001000E015E141F48071C9F8C5
:103470000010FEF7BBFD064605E000BFFEF7B6FDF7
:10348000801B64282ED8D9F80000C005F6D54D4E13
:10349000A068603601280AD008B1052813D030682A
:1034A00020F001003060306820F0040002E0306855
:1034B00040F001003060A06841F2883A98B1FEF710
:1034C00095FD81460AE0306840F004003060EEE788
:1034D000FEF78CFDA0EB0901514503D83068800749
:1034E000F6D50EE072E0FEF781FD814606E000BFF2
:1034F000FEF77CFDA0EB0901514567D830688007D5
:10350000F6D4606A00287CD0DFF8B8A0D8F80010A4
:103510000AF1200A4FF6F87B0AF10408C1F3C20150
:103520000329AAF104096DD00228286820F08070D0
:10353000286003D0FEF75AFD044681E0FEF756FDF1
:10354000064604E0FEF752FD801B022875D8286865
:103550008001F7D4E26A40F2F331386854F8283F2A
:10356000884340EA021018433860217B4FF4FE0C78
:1035700022894FF0FE47208A4902267D521E401EB6
:10358000A1F5007189B2C2F308021143761E0CEA5C
:1035900000400143484607EA06621143CAF800109A
:1035A000D9F8001021F00101C9F80010D8F8003056
:1035B000266A23EA0B0343EAC601C8F80010D9F8CB
:1035C000001004E0104402580048025835E0A26997
:1035D00021F00C011143C9F800100168E26921F0E3
:1035E000020111430160016841F48031016001680A
:1035F00041F400310160016841F4802101600168FB
:1036000001E06CE020E041F001010160286840F039
:1036100080702860FEF7EAFC044604E0FEF7E6FC52
:10362000001B022809D828688001F7D557E000BFA1
:10363000FEF7DCFC001B022802D90320BDE8F09F46
:1036400028688001F4D44AE039680128DAF80000DB
:1036500021D0A26A01F0030393421CD1E26AC1F3B4
:1036600005118A4217D1216BC0F30802491E8A4214
:1036700011D1616BC0F34622491E91420BD1A16B5F
:10368000C0F30642491E914205D1E16BC0F30660CA
:10369000491E814201D00120D0E7A16C4646D8F8EE
:1036A0000000C0F3CC00814219D0D9F800004D468B
:1036B00020F00100C9F80000FEF798FC4FEA00076F
:1036C000FEF794FCB842FBD0A26C306820EA0B00F5
:1036D00040EAC2003060286840F001002860002005
:1036E000ACE7401EB0F1807F10B501D3012010BDC2
:1036F0004FF0E02460610F21601702F042F90020D2
:10370000A0610721216110BD70477047704700001C
:10371000F0B590F83C20012A41D0224E012480F8D7
:103720003C40022280F83D2002681F4D5368B2429F
:10373000D2F808C001D0AA4203D14F6823F4700325
:103740003B430F6823F070031F4357600268B24287
:1037500019D0B2F1804F16D0144B9A4213D0144BAB
:103760009A4210D0134B9A420DD0AA420BD0124B62
:103770009A4208D0114B9A4205D0114B9A4202D07E
:10378000104B9A4204D189682CF080031943916050
:10379000002180F83D4080F83C100846F0BD022032
:1037A000F0BD0000000001400004014000040040A2
:1037B00000080040000C004000180040004001409C
:1037C00000E0004000E4004010B5040003D094F88D
:1037D0003D0010B107E0012010BD002084F83C003E
:1037E000204600F023F8022084F83D002068211DC7
:1037F00001F0B6F9012084F8480084F83E0084F80E
:103800003F0084F8400084F8410084F8420084F8C6
:10381000430084F8440084F8450084F8460084F8A6
:10382000470084F83D00002010BD000008B5154A8F
:103830000168154891420ED1016841F00201016012
:1038400000680022114600F0020000901D20FEF7E3
:1038500055FC1D2010E00D4A914211D1016841F044
:103860000401016000680022114600F0040000908D
:103870001E20FEF743FC1E20BDE80840FEF731BCC9
:1038800008BD000000040040E84402580008004061
:1038900090F83D10012901D0012070471A4A0221F9
:1038A00080F83D100168CB6843F00103CB600068ED
:1038B00090421AD0B0F1804F17D01449884214D0EA
:1038C0001349884211D0134988420ED012498842C8
:1038D0000BD01249884208D01149884205D01149BD
:1038E000884202D01049884207D181680F4A1140AE
:1038F000062906D0B1F5803F03D0016841F00101EF
:1039000001600020704700000000014000040040FA
:1039100000080040000C0040000401400018004076
:103920000040014000E0004000E4004007000100CA
:1039300070B5044690F83C000025012814D03A4B9D
:10394000012684F83C60022084F83D0022689068DB
:10395000184020F47F409060086870282FD010DC59
:1039600010F00F0F03D022E04FF0020070BD4FEABD
:103970002012072A1BD2DFE802F0535353534B396E
:103980004100B0F1101F4BD009DCB0F5805F0FD0C3
:10399000B0F5005F1ED0B0F5801F08D140E0A0F563
:1039A000801120393CD010293AD0202938D0012567
:1039B00084F83D60002084F83C00284670BD4A68C9
:1039C0002068D1E9021301F03DF92068816841F0D7
:1039D000770109E04A682068D1E9021301F032F961
:1039E0002068816841F480418160E1E7CA684968E4
:1039F000206801F03BF92068502106E0CA68496858
:103A0000206801F044F92068602101F025F9CFE732
:103A1000CA684968206801F029F920684021F4E764
:103A2000226801461046F0E788FFCEFF70472DE977
:103A3000F041044600680027C6680569A90713D548
:103A4000B10711D5FA1E0261012121772068806932
:103A50008007204602D0FFF7E9FF04E000F08BF872
:103A6000204600F089F82777680716D5700714D527
:103A7000226802206FF004011161207720688069BC
:103A800010F4407F204602D0FFF7D0FF04E000F0A2
:103A900072F8204600F070F82777280715D5300710
:103AA00013D5226804206FF0080111612077206887
:103AB000C0698007204602D0FFF7B8FF04E000F09D
:103AC0005AF8204600F058F82777E80616D5F00691
:103AD00014D5226808206FF010011161207720684A
:103AE000C06910F4407F204602D0FFF79FFF04E03A
:103AF00000F041F8204600F03FF82777E80708D0AB
:103B0000F00706D021686FF001000861204600F040
:103B100034F8280601D4A80408D5300606D5216853
:103B20006FF4025008612046FFF7EFFDE80508D565
:103B3000300606D521686FF4807008612046FFF7D3
:103B4000E3FD680608D5700606D521686FF04000D1
:103B50000861204600F012F8A8060AD5B00608D57C
:103B600021686FF0200008612046BDE8F041FFF7B2
:103B7000CDBDBDE8F081704770477047704730B5E4
:103B800090F88410012918D0012280F88420242183
:103B9000C0F888100022202401680B680D6823F00B
:103BA000005325F001050D60426601680B60C0F806
:103BB000884080F88420104630BD022030BD704718
:103BC000704770B5044690F8840001281DD001228A
:103BD00084F884202420C4F88800206805680268DE
:103BE00022F0010202602068826822F060620A43CB
:103BF0008260204601F064F82268202100201560D0
:103C0000C4F8881084F8840070BD022070BD70B5BF
:103C1000044690F8840001281DD0012284F88420F5
:103C20002420C4F8880020680568026822F0010298
:103C300002602068826822F060420A438260204667
:103C400001F03EF82268202100201560C4F8881099
:103C500084F8840070BD022070BD7047704700007A
:103C600000680549884206D1082101620349012202
:103C7000034800F0B7BA7047007800400100002404
:103C8000180200242DE9F04107680025044640F69B
:103C90000F030226F8693968BA6818420AD1830608
:103CA0007ED501F0200302F0805C53EA0C0377D04C
:103CB000616F74E1CF4BDFF840C3134001EA0C0C95
:103CC00053EA0C0C6CD05FEAC07C0CD05FEAC15C9C
:103CD00009D54FF0010CC7F820C0D4F8907047F018
:103CE0000107C4F89070870709D5D70707D0276860
:103CF0003E62D4F8906046F00406C4F8906046072F
:103D00000AD5D60708D0276804263E62D4F890600A
:103D100046F00206C4F8906006070CD501F02006B4
:103D20001E4308D0266808233362D4F8903043F04D
:103D30000803C4F8903003050BD54B0109D526685C
:103D40004FF400633362D4F8903043F02003C4F89A
:103D50009030D4F89030002B3DD0800609D501F08A
:103D6000200002F08051084303D0616F09B1204662
:103D700088472168D4F890008968490602D410F079
:103D8000280F2AD0204601F081F82068806840067C
:103D90001ED52068083050E8001F21F0400100E0E7
:103DA00021E040E80012002AF3D1D4F8800078B175
:103DB00092490165D4F88000FDF750F800280AD038
:103DC000D4F88000016D00E02046BDE8F0410847CE
:103DD0002046FFF745FFBDE8F0812046FFF740FF92
:103DE000C4F89050F7E7D4F86CC02023BCF1010F61
:103DF0007ED15FEAC06C7BD55FEAC16C78D51020BC
:103E0000386220688068400673D5D4F880107C4AF8
:103E10000868904234D07A4A1832904230D0784ABA
:103E2000303290422CD0764A4832904228D0744AA0
:103E30006032904224D0724A7832904220D0704A48
:103E4000903290421CD06E4AA832904218D06D4AEF
:103E5000904215D06B4A1832904211D0694A3032E4
:103E600090420DD0674A4832904209D0654A60328C
:103E7000904205D0634A7832904201D0614A903234
:103E800040680004000CA6D0B4F85C208242A2D99D
:103E9000A4F85E00C869B0F5807F2FD0216851E892
:103EA000000F20F4807041E80002002AF6D120685B
:103EB000083050E8001F21F0010140E80012002AFC
:103EC000F5D12068083050E8001F21F0400140E89B
:103ED0000012002AF5D1C4F88C30E566216851E85B
:103EE000000F20F0100041E80002002AF6D101E0A6
:103EF00040E00BE0D4F88000FCF700FE2667B4F841
:103F00005C00B4F85E10401A81B22FE0B4F85C0097
:103F1000B4F85E10B4F85E20401A81B2002AB2D024
:103F20000029B0D0226852E8000F20F4907042E8D7
:103F30000007002FF6D1344F206800F1080050E848
:103F4000002F02EA070240E8002CBCF1000FF3D179
:103F5000C4F88C30E5666567206850E8002F22F0D1
:103F6000100240E80023002BF6D126672046FFF719
:103F700026FE30E7C60209D5560207D54FF4801059
:103F800038622046BDE8F041FFF768BE06060AD554
:103F900001F0800602F40002164304D0A16F00294C
:103FA0007FF412AF17E7420611D54A060FD5204617
:103FB000026852E8001F21F0400142E80014002C82
:103FC000F6D1C0F88830856700F05EFA03E7020298
:103FD00006D54A0004D52046BDE8F041FFF73DBEB6
:103FE000C001C6D50029C4DA2046BDE8F041FFF77C
:103FF000E7BD00000100001020010004774E00081A
:104000001000024010040240FEFFFFEF10B5040054
:1040100003D0D4F8880010B107E0012010BD0020C3
:1040200084F88400204600F027F82420C4F8880093
:104030002068016821F001010160A06A10B12046EA
:1040400000F060FE204601F0B3F90128E6D02068B8
:10405000416821F4904141602068816821F02A0183
:1040600081602068016841F0010101602046BDE8DF
:10407000104000F0ABBE00002DE9F043B5B004469F
:1040800014212EA8FCF788F9B8216846FCF784F9BA
:104090004F490227206800244B4D4FF00708DFF8F6
:1040A0002C91884232D100201D940221CDE90010CC
:1040B0006846FEF7D5F908B1FCF7F1FB4248083035
:1040C000016841F080410160006800F08040339059
:1040D000286840F01000286028684FF4C0712E91C5
:1040E0002EA900F01000CDE92F743194CDE9328073
:1040F0004846FDF767FE002252201146FDF7FEFFFD
:104100005220FDF7EEFF35B0BDE8F0833149324E65
:10411000884224D100201E940121CDE90010684678
:10412000FEF79EF908B1FCF7BAFB306840F01000CA
:104130003060306800F010003390286840F00100D3
:10414000286028684FF4C0612E912EA900F001006C
:10415000CDE92F743194CDE93280204831E02049F7
:104160008842D0D100201E940121CDE9001068467C
:10417000FEF776F908B1FCF792FB306840F080005A
:104180003060306800F080003390286840F0100004
:10419000286028682EA94D4600F0100033900420B6
:1041A0002E90CDE92F74CDE931404846FDF70AFE47
:1041B0000B2108202E90CDE92F74CDE931412EA995
:1041C0002846FDF7FFFD9EE7E04402580010025824
:1041D0000078004000100140F044025800000258EE
:1041E000001C014030B4D0F88C30202B02D00220CB
:1041F00030BC7047A9B1A2B10B4D00240368C4665E
:10420000AB420BD05B681B0208D5046854E8003F42
:1042100043F0806344E80035002DF6D130BC01F056
:10422000B5BA0120E4E70000000C005870B56349FE
:104230002DED048B006888427DD1614C601C217893
:10424000027809B9552A1BD15E484B1CDBB20B2BF7
:104250004254237014D3002121700A46435C491C48
:104260000A291A44D2B2F9DB817A914208D19FED32
:10427000560A544D41780C35512902D0532927D084
:104280008FE0B0F90210B0F90420B0F9060000EE9A
:10429000901A01EE102A02EE100AF8EEE00AB8EECB
:1042A000C11AB8EEC22AF3EE001A60EE800A21EEBF
:1042B000001A22EE000A60EEA10A21EE211A20EE79
:1042C000210AC5ED000A85ED011A85ED020A68E0B4
:1042D000B0F90210B0F90420B0F9060001EE901A0E
:1042E00002EE102A00EE900AF8EEE11AB8EEC22AA9
:1042F000F8EEE00A9FED351A61EE801A22EE002AF0
:1043000020EE800A2F4861EE810A183062EE011A11
:1043100020EE011AC0ED000AC0ED011A80ED021A6C
:104320009FED2B0AD0ED000A90ED011A60EE809A05
:1043300021EE009A00E03EE0B0EE490A01F0DAFB1F
:10434000F1EE408AB0EE490A01F02CFBB0EE408A53
:10435000B0EE690A01F0CEFB28EE008AB0EE490A01
:1043600001F020FBB0EE409AB0EE690A01F01AFBB2
:10437000D5ED000A134829EE000A70EEE80A243051
:10438000C0ED000AD5ED010A70EEC80AC0ED010AC1
:10439000D5ED020A30EEC00A80ED020A6068401CCA
:1043A0006060074901220B48491CBDEC048BBDE845
:1043B0007040FFF717BFBDEC048B70BD0078004064
:1043C00000000024B0000024000000380000344346
:1043D00039FA8E3C180200242DE9F8430446D0F83F
:1043E0008800984616460D46202802D00220BDE8D7
:1043F000F883A5B19EB10021C4F890102120C4F823
:1044000088001834FDF7F2FD814654F8100CA68799
:10441000E6872027183CB0F5805F02D003E001203A
:10442000E5E7206910B12E46002510E000260EE0D9
:104430008021204601F032FAC0B9DEB116F8010B36
:1044400021688862B4F85600401EA4F85600B4F8FB
:1044500056004B464FF00002CDF800800028E7D10F
:104460004FF04001204601F019FA48B1C4F88870B5
:104470000320BCE735F8020B2168C0F30800E0E731
:10448000C4F888700020B2E77047FEE71D4800239B
:104490002DE9F041DFF868C04FF44077C0F800C064
:1044A0000124C0E9027300F1140804744374142653
:1044B0004FF03B0C847488E8501000F12408066229
:1044C00002250D27042188E8B0000A220563C0E90F
:1044D0000D31C0E90F12C0E91112C0E91315C0E98E
:1044E0001512C2650266C0E91931FDF77FF900288F
:1044F00003D0BDE8F041FCF7D2B9BDE8F08100007F
:1045000000A00040E000002430B587B014216846C8
:10451000FBF742FF1E48016841F01001016001688D
:1045200001F010010591016841F00401016001688A
:1045300001F004010591016841F08001016001680A
:1045400001F080010591016841F0010101600168FD
:1045500001F001010591016841F008010160006866
:104560004FF460440B4D002200F0080021460590F6
:104570002846FDF735FD002100940120CDE9010119
:10458000284603916946FDF71DFC07B030BD0000C9
:10459000E04402580008025810B588B017480024BB
:1045A0001549EF2240F2E7330094019402940394FA
:1045B00004940594069480E81600C0E903348461ED
:1045C000FFF702F908B1FCF76AF94FF48050009048
:1045D0000A486946FFF7ACF908B1FCF760F90748EB
:1045E00004A904940694FFF793F8002801D0FCF77F
:1045F00056F908B010BD00000004004080010024FE
:1046000010B588B0174800241549EF2240F2E7336F
:10461000009401940294039404940594069480E811
:104620001600C0E903348461FFF7CEF808B1FCF747
:1046300036F94FF4805000900A486946FFF778F940
:1046400008B1FCF72CF9074804A904940694FFF775
:104650005FF8002801D0FCF722F908B010BD000077
:1046600000080040CC0100241848002110B5164C69
:104670000C224FF4E1330460C0E90131C160C0E9AC
:1046800004128161C161016241628162FFF7BEFC77
:1046900008B1FCF704F90D480021FFF7B8FA08B19A
:1046A000FCF7FDF809480021FFF78BFA08B1FCF789
:1046B000F6F80648FFF763FA002803D0BDE810407B
:1046C000FCF7EDB810BD000000780040180200248F
:1046D0001848002110B5164C0C224FF4E133046049
:1046E000C0E90131C160C0E904128161C1610162A8
:1046F00041628162FFF78AFC08B1FCF7D0F80D48EF
:104700000021FFF784FA08B1FCF7C9F80948002135
:10471000FFF757FA08B1FCF7C2F80648FFF72FFA7F
:10472000002803D0BDE81040FCF7B9B810BD000068
:10473000001C0140400300241848002110B5164C0D
:104740000C224FF461230460C0E90131C160C0E96B
:1047500004128161C161016241628162FFF756FC0E
:1047600008B1FCF79CF80D480021FFF750FA08B19A
:10477000FCF795F809480021FFF723FA08B1FCF788
:104780008EF80648FFF7FBF9002803D0BDE810407B
:10479000FCF785B810BD000000100140AC020024F9
:1047A000FEE7FEE7704700002DE9F047454D04465F
:1047B00089464FF0000A2868C04380070AD0414E5E
:1047C000283E306820F080603060FDF70FFC07461F
:1047D000B04608E00120BDE8F08700BFFDF706FC09
:1047E000C01B022867D8D8F800000001F6D4206862
:1047F00029684FF4FE0721F47C313E0241EA003083
:104800002860207AA389B4F804C040022D4D2D49B8
:104810005B1E227CACF1010C1035091DA0F5007067
:1048200080B2521ECCF3080C07EA034340EA0C00A6
:10483000184306EA0262104328600868626920F0A3
:10484000C000104308600A68A06922F020020243F9
:104850000A60281D0A6822F010020A6002684FF6FA
:10486000F873E4699A4342EAC40202600868B9F145
:10487000000F40F010020A6011D00868B9F1010F72
:1048800011D040F400100860D8F80000444640F011
:104890008060C8F80000FDF7A9FB05460DE0086838
:1048A00040F40020EFE740F48010ECE7FDF79EFBBA
:1048B000401B022801D903208DE720680001F5D5AF
:1048C000504688E7284402582DE9F047454D0446F4
:1048D00089464FF0000A2868C04380070AD0414E3D
:1048E000283E306820F080503060FDF77FFB07469F
:1048F000B04608E00120BDE8F08700BFFDF776FB79
:10490000C01B022867D8D8F800008000F6D42088A1
:1049100029684FF4FE0721F07C713E0241EA005005
:104920002860207AA389B4F804C040022D4D2D4997
:104930005B1E227CACF1010C1835091DA0F500703E
:1049400080B2521ECCF3080C07EA034340EA0C0085
:10495000184306EA0262104328600868626920F47E
:104960004060104308600A68A06922F400720243A4
:104970000A60281D0A6822F480720A6002684FF6F5
:10498000F873E4699A4342EAC40202600868B9F124
:10499000000F40F480720A6011D00868B9F1010F6D
:1049A00011D040F080700860D8F80000444640F014
:1049B0008050C8F80000FDF719FB05460DE00868B7
:1049C00040F48000EFE740F40000ECE7FDF70EFB59
:1049D000401B022801D903208DE720688000F5D50F
:1049E000504688E7284402587047FDF705BB000091
:1049F00070B59CB04C216846FBF7CEFC202113A873
:104A0000FBF7CAFC0220FDF7ABFB1E48016821F44E
:104A1000404101600168002401F440411B9101689C
:104A20008904FCD502200A9028230990C2030121A1
:104A30000D910625CDE90012CDE90B030C26129449
:104A4000CDE90E50CDE910646846FEF7B7FB08B11A
:104A500072B6FEE740201A9008230501CDE9163012
:104A600013ABCDE918053F21032283E8160013A8F4
:104A70001146FEF793F9002801D072B6FEE71CB08C
:104A800070BD0000184802582748F0B5274A016851
:104A900041F470010160106800F00F00072804D293
:104AA000106820F00F00C01D106021490020204C2C
:104AB00010340B681F4D43F001030B6020600B683E
:104AC0002B400B60136803F00F03072B04D9136806
:104AD00023F00F03DB1D1360154C174A1834174BD6
:104AE000261D371D2060124C154D28343060261DC0
:104AF0003860371D23603B1D35601C1D3A60251D45
:104B00002E1D1860331D22602860326018600A680C
:104B100043F2D204064B0B4D22F4802260330A602C
:104B200018602C60F0BD000088ED00E0002000520D
:104B3000004402587FEDF6EA800201010002020201
:104B40000000FF01004000520148FEF770BF000066
:104B5000800100240148FEF76ABF0000CC01002458
:104B60002DE9F0472D4B4FF0804A2D4D02689842B9
:104B70002C4E2D4F2D4C09D0504507D0A84205D0C2
:104B8000B04203D0B84201D0A04205D1D1F804C050
:104B900022F070024CEA0202DFF894C0DFF8948041
:104BA0009842DFF8949015D0504513D0A84211D008
:104BB000B0420FD0B8420DD0A0420BD0604509D012
:104BC000404507D0484505D01C4DA84202D01C4D99
:104BD000A84203D1CD6822F440722A434D6922F0E5
:104BE00080022A43026098428A68C2620A6882622E
:104BF00007D0A04205D0604503D0404501D04845CC
:104C000001D109690163012141610169C90703D02B
:104C1000016921F001010161BDE8F0870000014058
:104C20000004004000080040000C00400004014067
:104C300000400140004401400048014000E00040C5
:104C400000E4004042EA032283680A4323F47F41E0
:104C50000A43826070470000034B82681A400A438F
:104C600042F00701816070478FFFCFFF10B5036AE4
:104C7000046A23F00A0324F00104046284690B43EC
:104C800024F0F00141EA02118161036210BD10B508
:104C9000036A046A23F0A00324F010040462846908
:104CA00043EA011124F4704343EA02328261016253
:104CB00010BD00000148FEF7E5BF00001802002407
:104CC00030B5416EB9B101680D4B03F108048A6833
:104CD0008968C2F34262490F5D5C615C2D01B5FBDE
:104CE000F1F1A0F86A10995CA25C0901B1FBF2F144
:104CF000A0F8681030BD0121A0F86A10F8E70000A4
:104D00004071000890F82810090706D50168836BE8
:104D10004A6822F400421A434A6090F82810C907F2
:104D200006D00168C36A4A6822F400321A434A6016
:104D300090F82810890706D50168036B4A6822F4A9
:104D400080321A434A6090F82810490706D5016856
:104D5000436B4A6822F480221A434A6090F8281074
:104D6000C90606D50168C36B8A6822F480521A43CB
:104D70008A6090F82810890606D50168036C8A6855
:104D800022F400521A438A6090F82810490611D57F
:104D90000168436C4A6822F480121A434A60416CED
:104DA000B1F5801F06D10168836C4A6822F4C00205
:104DB0001A434A6090F82810090606D50168C26CAB
:104DC000486820F400201043486070472DE9F843FC
:104DD00000250446C0F89050FDF708F98046206889
:104DE00020266FF07E470068000713D50022434657
:104DF00031042046009700F051FD58B1216851E878
:104E0000000F20F0800041E80002002AF6D1C4F82B
:104E1000886021E020680068400722D500224346D0
:104E20004FF480012046009700F038FDC8B120689B
:104E300050E8001F21F4907140E80012002AF6D1DA
:104E40002068083050E8001F21F0010140E80012FE
:104E5000002AF5D1C4F88C60032084F88450BDE8A2
:104E6000F883C4F88860C4F88C60E5662567002084
:104E700084F88450F3E710B5806B0021A0F85E1031
:104E8000A0F85610FEF7ECFE10BD000010B5026849
:104E900052E8001F21F4907142E80013002BF6D174
:104EA0000E4B0268083252E8001F194042E8001415
:104EB000002CF6D1C16E012908D1026852E8001F0A
:104EC00021F0100142E80013002BF6D1002120222E
:104ED000C0F88C20C166416710BD0000FEFFFFEFE7
:104EE00010B5D0F88C10B0F860202229016804D0E9
:104EF000886940F00800886110BD496A836D1140DF
:104F00001980816D891C8165B0F85E10491EA0F87A
:104F10005E10B0F85E100029EED1016851E8002F54
:104F200022F4907241E80023002BF6D10168083189
:104F300051E8002F22F0010241E80023002BF5D1B7
:104F4000184B002102682024C0F88C40416701679B
:104F50009A420BD05268120208D5036853E8002F1A
:104F600022F0806243E80024002CF6D1C26E012AB0
:104F700002D0FFF75BF910BDC166026852E8001F5E
:104F800021F0100142E80013002BF6D10168CA6934
:104F9000D243D20601D410220A62B0F85C10FEF7A8
:104FA0000EFE10BD000C00582DE9F04704460068C5
:104FB000C569D0F800A0D0F80880D4F88C10B4F8F7
:104FC0006060222905D0816941F008018161BDE856
:104FD000F087B4F868704FF0000975E02068A16DA3
:104FE000406A30400880A06D801CA065B4F85E0067
:104FF000401EA4F85E002068C569690730D0E90743
:105000000AD05FEACA5107D501210162D4F89000A5
:1050100040F00100C4F89000A8070BD55FEAC87003
:1050200008D0216802200862D4F8900040F0040003
:10503000C4F8900068070BD55FEAC87008D02168F3
:1050400004200862D4F8900040F00200C4F89000F8
:10505000D4F8900020B12046FEF702FEC4F89090EC
:10506000B4F85E0080BB216851E8000F20F4807026
:1050700041E80002002AF6D1304A2068083050E8A2
:10508000001F114040E80013002BF6D12C4B2021CB
:1050900020684A46C4F88C10C4F87490C4F8709024
:1050A00098420BD04068000208D5216851E8000FF3
:1050B00020F0806041E80003002BF6D1E06E01286B
:1050C00025D02046FFF7B2F80FB1A80686D4B4F871
:1050D0005E0000283FF47BAFB4F8681081427FF691
:1050E00076AF2068083050E8001F21F0805140E87A
:1050F0000012002AF5D113486067206850E8001FAD
:1051000041F0200140E80012002AF6D15FE7E26694
:10511000206850E8001F21F0100140E80012002A2A
:10512000F6D12068C169C943C90601D410210162C2
:10513000B4F85C102046FEF742FDC5E7FEFFFFEF26
:10514000000C0058E14E000810B5D0F88C10B0F8F3
:1051500060202229016804D0886940F00800886135
:1051600010BD496A836D11401970816D491C8165BC
:10517000B0F85E10491EA0F85E10B0F85E1000296D
:10518000EED1026852E8001F21F4907142E800134A
:10519000002BF6D10168083151E8002F22F00102FE
:1051A00041E80023002BF5D1184B00210268202490
:1051B000C0F88C40416701679A420BD052681202D6
:1051C00008D5026852E8003F23F0806342E80034CB
:1051D000002CF6D1C26E012A02D0FFF727F810BDCD
:1051E000C166026852E8001F21F0100142E8001376
:1051F000002BF6D10168CA69D243D20601D410222D
:105200000A62B0F85C10FEF7DAFC10BD000C005822
:105210002DE9F04704460068C569D0F800A0D0F831
:105220000880D4F88C10B4F86060222905D0816918
:1052300041F008018161BDE8F087B4F868704FF073
:10524000000975E02068A16D406A30400870A06DCB
:10525000401CA065B4F85E00401EA4F85E00206803
:10526000C569690730D0E9070AD05FEACA5107D596
:1052700001210162D4F8900040F00100C4F89000D0
:10528000A8070BD55FEAC87008D021680220086221
:10529000D4F8900040F00400C4F8900068070BD5E3
:1052A0005FEAC87008D0216804200862D4F8900032
:1052B00040F00200C4F89000D4F8900020B12046DD
:1052C000FEF7CEFCC4F89090B4F85E0080BB216875
:1052D00051E8000F20F4807041E80002002AF6D166
:1052E000304A2068083050E8001F114040E80013A1
:1052F000002BF6D12C49202320684A46C4F88C3074
:10530000C4F87490C4F8709088420BD040680002D2
:1053100008D5216851E8000F20F0806041E80003C3
:10532000002BF6D1E06E012825D02046FEF77EFF47
:105330000FB1A80686D4B4F85E0000283FF47BAF16
:10534000B4F8681081427FF676AF2068083050E8E4
:10535000001F21F0805140E80012002AF5D11348C7
:105360006067206850E8001F41F0200140E800120B
:10537000002AF6D15FE7E266206850E8001F21F0BE
:10538000100140E80012002AF6D12068C169C94323
:10539000C90601D410210162B4F85C102046FEF762
:1053A0000EFCC5E7FEFFFFEF000C00584951000856
:1053B0002DE9F04304468068E24E87B0E24B216855
:1053C000D4E90427D4F81CC010430A68002547EA32
:1053D0000C073843324002430A602068E2684168A3
:1053E00021F44051114341602268A1699A4201D0E1
:1053F000206A01439668DFF854C3D54FD54806EAC2
:105400000C060E4396602168666ACA6A22F00F0293
:105410003243CA622268BA420ED1006800F03800F6
:1054200018286FD07ADCB8B308286CD010286BD15C
:105430008BE0282868D18EE0C7498A4209D10068EC
:1054400000F0070006285FD2DFE800F0507D7F8182
:105450008385C2498A4209D1006800F00700062806
:105460007BD2DFE800F0437072747678BC498A42E0
:1054700009D1006800F0070006286ED2DFE800F0CE
:1054800036636567696BB7498A420BD1006800F0E3
:105490000700062861D200E043E0DFE800F027546F
:1054A00056585A5CB0498A4206D1006800F038006C
:1054B00018284CD0B7DD31E0AC498A4209D10068E8
:1054C00000F00700062848D2DFE800F0103D3F4119
:1054D0004345A7498A420BD1006800F0070006281F
:1054E0003BD2DFE800F0033032343638002035E0BC
:1054F000A0498A4209D1006800F03800182826D057
:1055000091DD0BE023E01EE027E09B498A420AD1AF
:10551000006800F03800182819D084DD202888D1D0
:105520001CE001201AE09A4217D18A48001D006849
:1055300000F00700062810D2DFE800F00305070995
:105540000B0D02200AE0042008E0082006E01020ED
:1055500004E0202002E0402000E080208749DFF8BE
:1055600020829A42874A4FF400434FEA21174FF0B6
:1055700000064ED110281AD006DC022809D00428D3
:105580000BD008287ED10DE020283ED0402879D1CC
:105590003DE0FCF70FFE014610E06846FCF71CFEFC
:1055A00001990BE003A8FCF7B9FE049906E0106826
:1055B000800605D51068C0F3C100C140002970D035
:1055C000606A676838F8102007EB4703B1FBF2F018
:1055D000834257D8B0EB073F54D8002308461946FA
:1055E000FAF790FE02467808130E120243EA0121F0
:1055F00010183A4671410023FAF784FE624AA0F57A
:10560000407191423ED821688FE03946D8E719466B
:10561000D6E7D4F81CC04FF6EF799C4546D1082850
:1056200019D005DC58B101280CD0042875D10DE043
:10563000102815D0202835D040286ED134E0FDF751
:10564000FDFC01E0FDF70CFD014610E06846FCF7AB
:10565000C3FD01990BE003A8FCF760FE049906E086
:105660001068800604D51068C0F3C100C140C1B104
:10567000636A606838F81330B1FBF3F1490001EB5D
:10568000500100E049E0B1FBF0F0A0F11001494504
:1056900043D84FF6F0732168C0F34202184010431C
:1056A00043E043E03946E3E71946E1E7082819D02B
:1056B00005DC58B101280CD004282ED10DE01028AB
:1056C00015D020282BD0402827D12AE0FDF7B6FCA2
:1056D00001E0FDF7C5FC014610E06846FCF77CFDE3
:1056E00001990BE003A8FCF719FE049906E0106885
:1056F000800604D51068C0F3C100C140B1B1636A2F
:10570000606838F81330B1FBF3F101EB5001B1FBE5
:10571000F0F0A0F11001494505D9012506E0394610
:10572000EDE71946EBE7216880B2C8600120A4F8D4
:105730006A00A4F8680028466667A66707B0BDE857
:10574000F0830000F369FFCF000C0058FFF4FF1155
:1057500000100140544402580044004000480040FA
:10576000004C004000500040001401400078004010
:10577000007C004000180140001C01400090D00354
:105780002871000800440258FFFC0F0070B58368C0
:10579000002481654FF48056A0F85C20B342A0F845
:1057A0005E204FF0FF01446704D1036903BB40F260
:1057B000FF111DE04FF07F05C3B1B3F1805F1AD038
:1057C000A0F860402221C0F89040C0F88C10016819
:1057D000083151E8003F43F0010341E80034002C58
:1057E000F5D1416EB1F1005F0CD02FE0036933B900
:1057F000A0F86010E6E7016909B13F21F8E7A0F8D9
:105800006050DFE7B0F8681091421FD88168B1425C
:1058100001D10169B9B11D490269416742B102680C
:1058200052E8001F41F4807142E80013002BF6D1CA
:105830000168083151E8002F42F0805241E800230E
:10584000002BF5D120E012494167F1E78168B142B0
:1058500001D1016969B10F49026941675AB1016813
:1058600051E8002F42F4907241E80023002BF6D15A
:105870000AE009494167026852E8001F41F020012F
:1058800042E80013002BF6D1002070BD1152000831
:10589000A94F000849510008E14E00082DE9F047E2
:1058A000994617460D460446089E4FF0000833E01F
:1058B000701C31D0FCF79AFBA0EB0900B04218D85D
:1058C000BEB120680168490726D5802D24D0402D1F
:1058D00022D0C169C94309070DD4082505622046B5
:1058E000FFF7D4FAC4F89050012084F88480BDE812
:1058F000F0870320FBE7C069C04300050CD4216892
:105900004FF4006008622046FFF7C0FA2021C4F877
:10591000901084F88480ECE72068C06935EA0000C4
:1059200004D00020B842C3D00020E0E70120F9E70E
:10593000FEE700000FB4084B10B504A902AA0398B3
:1059400000F038FB044602A9002000F0CAFE204601
:1059500010BC5DF814FB0000E3660008410008027B
:1059600018BF04200A0E18BF40F001004FF07F421C
:1059700032EA010108BF40F00200012808BF0520FB
:105980007047090700284FEA116104DB00F1E020AD
:1059900080F80014704700F00F0000F1E02080F85C
:1059A000141D704710EE101A08B5434A6846B2EB52
:1059B000410F26D94FF0E640B0EB410F94BF0020D5
:1059C0004FF0FF3000900098DFED3C0A002860DBCC
:1059D00010F0010F46D060EE000ADFED391A9FED9E
:1059E000391A10F0020F00EEE11ADFED371A40EE1F
:1059F000811A21EEA01AF0EE400A40EE010A2ED0E4
:105A000041E0324B21F0004293423FD911F0004F68
:105A1000DFED2F0A20EE201ADFED2E0A19BF31EE3E
:105A2000601A71EE200A31EE201A71EE600ABDEEA6
:105A3000E01A11EE100A9FED281A00F0030000EEA4
:105A4000C10A9FED261A009000EEC10A9FED241AAC
:105A500000EEC10A9FED231A00EEC10AB3E7F1EE92
:105A6000600A10E020EE000A9FED1F1ADFED1F1AFA
:105A700010F0020F40EE011A9FED1D1A00EE211AE0
:105A800040EE010AEBD1B0EE600A08BD00F010F95B
:105A900099E710EE100A4000B0F17F4FF3D307D121
:105AA0004FF0010000F0BEF9BDE8084000F0F0B88A
:105AB000BDE8084000F0E8B8B61F927E0000803FC5
:105AC000336D4C39DA82083CA0AA2ABE490E4946F9
:105AD00083F9223F0000004B0000C93F00A0FD39C0
